{"abi":[{"type":"receive","stateMutability":"payable"},{"type":"function","name":"buyTicket","inputs":[{"name":"ticketId","type":"uint256","internalType":"uint256"}],"outputs":[],"stateMutability":"payable"},{"type":"function","name":"cashOut","inputs":[{"name":"concertId","type":"uint256","internalType":"uint256"}],"outputs":[],"stateMutability":"nonpayable"},{"type":"function","name":"confirmConcertAsArtist","inputs":[{"name":"concertId","type":"uint256","internalType":"uint256"}],"outputs":[],"stateMutability":"nonpayable"},{"type":"function","name":"confirmConcertAsVenue","inputs":[{"name":"concertId","type":"uint256","internalType":"uint256"}],"outputs":[],"stateMutability":"nonpayable"},{"type":"function","name":"createArtist","inputs":[{"name":"name","type":"string","internalType":"string"},{"name":"artistType","type":"string","internalType":"string"},{"name":"payout","type":"address","internalType":"address"}],"outputs":[{"name":"artistId","type":"uint256","internalType":"uint256"}],"stateMutability":"nonpayable"},{"type":"function","name":"createConcert","inputs":[{"name":"date","type":"uint64","internalType":"uint64"},{"name":"artistId","type":"uint256","internalType":"uint256"},{"name":"venueId","type":"uint256","internalType":"uint256"}],"outputs":[{"name":"concertId","type":"uint256","internalType":"uint256"}],"stateMutability":"nonpayable"},{"type":"function","name":"createRedeemCodes","inputs":[{"name":"concertId","type":"uint256","internalType":"uint256"},{"name":"codes","type":"string[]","internalType":"string[]"}],"outputs":[{"name":"ticketIds","type":"uint256[]","internalType":"uint256[]"}],"stateMutability":"nonpayable"},{"type":"function","name":"createVenue","inputs":[{"name":"name","type":"string","internalType":"string"},{"name":"capacity","type":"uint256","internalType":"uint256"},{"name":"venueShareBps","type":"uint16","internalType":"uint16"},{"name":"payout","type":"address","internalType":"address"}],"outputs":[{"name":"venueId","type":"uint256","internalType":"uint256"}],"stateMutability":"nonpayable"},{"type":"function","name":"emitTickets","inputs":[{"name":"concertId","type":"uint256","internalType":"uint256"},{"name":"quantity","type":"uint256","internalType":"uint256"},{"name":"primaryPriceWei","type":"uint256","internalType":"uint256"},{"name":"saleAllowed","type":"bool","internalType":"bool"}],"outputs":[{"name":"firstTicketId","type":"uint256","internalType":"uint256"}],"stateMutability":"nonpayable"},{"type":"function","name":"getArtist","inputs":[{"name":"artistId","type":"uint256","internalType":"uint256"}],"outputs":[{"name":"","type":"tuple","internalType":"struct TicketingTypes.Artist","components":[{"name":"name","type":"string","internalType":"string"},{"name":"artistType","type":"string","internalType":"string"},{"name":"admin","type":"address","internalType":"address"},{"name":"payout","type":"address","internalType":"address"},{"name":"totalTicketsSold","type":"uint256","internalType":"uint256"},{"name":"exists","type":"bool","internalType":"bool"}]}],"stateMutability":"view"},{"type":"function","name":"getConcert","inputs":[{"name":"concertId","type":"uint256","internalType":"uint256"}],"outputs":[{"name":"","type":"tuple","internalType":"struct TicketingTypes.Concert","components":[{"name":"date","type":"uint64","internalType":"uint64"},{"name":"artistId","type":"uint256","internalType":"uint256"},{"name":"venueId","type":"uint256","internalType":"uint256"},{"name":"confirmedByArtist","type":"bool","internalType":"bool"},{"name":"confirmedByVenue","type":"bool","internalType":"bool"},{"name":"cashedOut","type":"bool","internalType":"bool"},{"name":"revenueWei","type":"uint256","internalType":"uint256"},{"name":"ticketsEmitted","type":"uint256","internalType":"uint256"},{"name":"exists","type":"bool","internalType":"bool"}]}],"stateMutability":"view"},{"type":"function","name":"getTicket","inputs":[{"name":"ticketId","type":"uint256","internalType":"uint256"}],"outputs":[{"name":"","type":"tuple","internalType":"struct TicketingTypes.Ticket","components":[{"name":"concertId","type":"uint256","internalType":"uint256"},{"name":"owner","type":"address","internalType":"address"},{"name":"lastPaidPriceWei","type":"uint256","internalType":"uint256"},{"name":"used","type":"bool","internalType":"bool"},{"name":"saleAllowed","type":"bool","internalType":"bool"},{"name":"listed","type":"bool","internalType":"bool"},{"name":"listPriceWei","type":"uint256","internalType":"uint256"},{"name":"exists","type":"bool","internalType":"bool"}]}],"stateMutability":"view"},{"type":"function","name":"getVenue","inputs":[{"name":"venueId","type":"uint256","internalType":"uint256"}],"outputs":[{"name":"","type":"tuple","internalType":"struct TicketingTypes.Venue","components":[{"name":"name","type":"string","internalType":"string"},{"name":"capacity","type":"uint256","internalType":"uint256"},{"name":"venueShareBps","type":"uint16","internalType":"uint16"},{"name":"admin","type":"address","internalType":"address"},{"name":"payout","type":"address","internalType":"address"},{"name":"exists","type":"bool","internalType":"bool"}]}],"stateMutability":"view"},{"type":"function","name":"isConcertConfirmed","inputs":[{"name":"concertId","type":"uint256","internalType":"uint256"}],"outputs":[{"name":"","type":"bool","internalType":"bool"}],"stateMutability":"view"},{"type":"function","name":"listTicket","inputs":[{"name":"ticketId","type":"uint256","internalType":"uint256"},{"name":"priceWei","type":"uint256","internalType":"uint256"}],"outputs":[],"stateMutability":"nonpayable"},{"type":"function","name":"nextIds","inputs":[],"outputs":[{"name":"nextArtistId","type":"uint256","internalType":"uint256"},{"name":"nextVenueId","type":"uint256","internalType":"uint256"},{"name":"nextConcertId","type":"uint256","internalType":"uint256"},{"name":"nextTicketId","type":"uint256","internalType":"uint256"}],"stateMutability":"view"},{"type":"function","name":"redeemTicket","inputs":[{"name":"concertId","type":"uint256","internalType":"uint256"},{"name":"code","type":"string","internalType":"string"}],"outputs":[{"name":"ticketId","type":"uint256","internalType":"uint256"}],"stateMutability":"nonpayable"},{"type":"function","name":"safeTrade","inputs":[{"name":"ticketId","type":"uint256","internalType":"uint256"}],"outputs":[],"stateMutability":"payable"},{"type":"function","name":"transferTicket","inputs":[{"name":"ticketId","type":"uint256","internalType":"uint256"},{"name":"to","type":"address","internalType":"address"}],"outputs":[],"stateMutability":"nonpayable"},{"type":"function","name":"unlistTicket","inputs":[{"name":"ticketId","type":"uint256","internalType":"uint256"}],"outputs":[],"stateMutability":"nonpayable"},{"type":"function","name":"updateArtist","inputs":[{"name":"artistId","type":"uint256","internalType":"uint256"},{"name":"name","type":"string","internalType":"string"},{"name":"artistType","type":"string","internalType":"string"},{"name":"newAdmin","type":"address","internalType":"address"},{"name":"payout","type":"address","internalType":"address"}],"outputs":[],"stateMutability":"nonpayable"},{"type":"function","name":"updateVenue","inputs":[{"name":"venueId","type":"uint256","internalType":"uint256"},{"name":"name","type":"string","internalType":"string"},{"name":"capacity","type":"uint256","internalType":"uint256"},{"name":"venueShareBps","type":"uint16","internalType":"uint16"},{"name":"newAdmin","type":"address","internalType":"address"},{"name":"payout","type":"address","internalType":"address"}],"outputs":[],"stateMutability":"nonpayable"},{"type":"function","name":"useTicket","inputs":[{"name":"ticketId","type":"uint256","internalType":"uint256"}],"outputs":[],"stateMutability":"nonpayable"},{"type":"event","name":"ArtistCreated","inputs":[{"name":"artistId","type":"uint256","indexed":true,"internalType":"uint256"},{"name":"admin","type":"address","indexed":true,"internalType":"address"},{"name":"payout","type":"address","indexed":true,"internalType":"address"},{"name":"name","type":"string","indexed":false,"internalType":"string"},{"name":"artistType","type":"string","indexed":false,"internalType":"string"}],"anonymous":false},{"type":"event","name":"ArtistUpdated","inputs":[{"name":"artistId","type":"uint256","indexed":true,"internalType":"uint256"},{"name":"admin","type":"address","indexed":true,"internalType":"address"},{"name":"payout","type":"address","indexed":true,"internalType":"address"},{"name":"name","type":"string","indexed":false,"internalType":"string"},{"name":"artistType","type":"string","indexed":false,"internalType":"string"}],"anonymous":false},{"type":"event","name":"CashOut","inputs":[{"name":"concertId","type":"uint256","indexed":true,"internalType":"uint256"},{"name":"artistId","type":"uint256","indexed":true,"internalType":"uint256"},{"name":"venueId","type":"uint256","indexed":true,"internalType":"uint256"},{"name":"artistAmountWei","type":"uint256","indexed":false,"internalType":"uint256"},{"name":"venueAmountWei","type":"uint256","indexed":false,"internalType":"uint256"}],"anonymous":false},{"type":"event","name":"ConcertConfirmedByArtist","inputs":[{"name":"concertId","type":"uint256","indexed":true,"internalType":"uint256"},{"name":"artistId","type":"uint256","indexed":true,"internalType":"uint256"},{"name":"confirmer","type":"address","indexed":false,"internalType":"address"}],"anonymous":false},{"type":"event","name":"ConcertConfirmedByVenue","inputs":[{"name":"concertId","type":"uint256","indexed":true,"internalType":"uint256"},{"name":"venueId","type":"uint256","indexed":true,"internalType":"uint256"},{"name":"confirmer","type":"address","indexed":false,"internalType":"address"}],"anonymous":false},{"type":"event","name":"ConcertCreated","inputs":[{"name":"concertId","type":"uint256","indexed":true,"internalType":"uint256"},{"name":"artistId","type":"uint256","indexed":true,"internalType":"uint256"},{"name":"venueId","type":"uint256","indexed":true,"internalType":"uint256"},{"name":"date","type":"uint64","indexed":false,"internalType":"uint64"},{"name":"creator","type":"address","indexed":false,"internalType":"address"}],"anonymous":false},{"type":"event","name":"RedeemCodeCreated","inputs":[{"name":"concertId","type":"uint256","indexed":true,"internalType":"uint256"},{"name":"codeHash","type":"bytes32","indexed":true,"internalType":"bytes32"},{"name":"ticketId","type":"uint256","indexed":true,"internalType":"uint256"}],"anonymous":false},{"type":"event","name":"TicketBought","inputs":[{"name":"ticketId","type":"uint256","indexed":true,"internalType":"uint256"},{"name":"from","type":"address","indexed":true,"internalType":"address"},{"name":"to","type":"address","indexed":true,"internalType":"address"},{"name":"priceWei","type":"uint256","indexed":false,"internalType":"uint256"}],"anonymous":false},{"type":"event","name":"TicketListed","inputs":[{"name":"ticketId","type":"uint256","indexed":true,"internalType":"uint256"},{"name":"priceWei","type":"uint256","indexed":false,"internalType":"uint256"}],"anonymous":false},{"type":"event","name":"TicketRedeemed","inputs":[{"name":"concertId","type":"uint256","indexed":true,"internalType":"uint256"},{"name":"codeHash","type":"bytes32","indexed":true,"internalType":"bytes32"},{"name":"ticketId","type":"uint256","indexed":true,"internalType":"uint256"},{"name":"redeemer","type":"address","indexed":false,"internalType":"address"}],"anonymous":false},{"type":"event","name":"TicketTransferred","inputs":[{"name":"ticketId","type":"uint256","indexed":true,"internalType":"uint256"},{"name":"from","type":"address","indexed":true,"internalType":"address"},{"name":"to","type":"address","indexed":true,"internalType":"address"}],"anonymous":false},{"type":"event","name":"TicketUnlisted","inputs":[{"name":"ticketId","type":"uint256","indexed":true,"internalType":"uint256"}],"anonymous":false},{"type":"event","name":"TicketUsed","inputs":[{"name":"ticketId","type":"uint256","indexed":true,"internalType":"uint256"},{"name":"user","type":"address","indexed":true,"internalType":"address"}],"anonymous":false},{"type":"event","name":"TicketsEmitted","inputs":[{"name":"concertId","type":"uint256","indexed":true,"internalType":"uint256"},{"name":"quantity","type":"uint256","indexed":false,"internalType":"uint256"},{"name":"primaryPriceWei","type":"uint256","indexed":false,"internalType":"uint256"},{"name":"saleAllowed","type":"bool","indexed":false,"internalType":"bool"}],"anonymous":false},{"type":"event","name":"VenueCreated","inputs":[{"name":"venueId","type":"uint256","indexed":true,"internalType":"uint256"},{"name":"admin","type":"address","indexed":true,"internalType":"address"},{"name":"payout","type":"address","indexed":true,"internalType":"address"},{"name":"name","type":"string","indexed":false,"internalType":"string"},{"name":"capacity","type":"uint256","indexed":false,"internalType":"uint256"},{"name":"venueShareBps","type":"uint16","indexed":false,"internalType":"uint16"}],"anonymous":false},{"type":"event","name":"VenueUpdated","inputs":[{"name":"venueId","type":"uint256","indexed":true,"internalType":"uint256"},{"name":"admin","type":"address","indexed":true,"internalType":"address"},{"name":"payout","type":"address","indexed":true,"internalType":"address"},{"name":"name","type":"string","indexed":false,"internalType":"string"},{"name":"capacity","type":"uint256","indexed":false,"internalType":"uint256"},{"name":"venueShareBps","type":"uint16","indexed":false,"internalType":"uint16"}],"anonymous":false},{"type":"error","name":"AlreadyExists","inputs":[]},{"type":"error","name":"ArtistDoesNotExist","inputs":[{"name":"artistId","type":"uint256","internalType":"uint256"}]},{"type":"error","name":"CapacityExceeded","inputs":[{"name":"capacity","type":"uint256","internalType":"uint256"},{"name":"requested","type":"uint256","internalType":"uint256"},{"name":"emitted","type":"uint256","internalType":"uint256"}]},{"type":"error","name":"ConcertAlreadyCashedOut","inputs":[{"name":"concertId","type":"uint256","internalType":"uint256"}]},{"type":"error","name":"ConcertDateInPast","inputs":[{"name":"date","type":"uint64","internalType":"uint64"}]},{"type":"error","name":"ConcertDoesNotExist","inputs":[{"name":"concertId","type":"uint256","internalType":"uint256"}]},{"type":"error","name":"ConcertNotConfirmed","inputs":[{"name":"concertId","type":"uint256","internalType":"uint256"}]},{"type":"error","name":"ConcertNotPassedYet","inputs":[{"name":"concertId","type":"uint256","internalType":"uint256"},{"name":"date","type":"uint64","internalType":"uint64"}]},{"type":"error","name":"InvalidInput","inputs":[]},{"type":"error","name":"InvalidPayment","inputs":[{"name":"expectedWei","type":"uint256","internalType":"uint256"},{"name":"actualWei","type":"uint256","internalType":"uint256"}]},{"type":"error","name":"InvalidRedeemCode","inputs":[]},{"type":"error","name":"InvalidVenueShareBps","inputs":[{"name":"bps","type":"uint16","internalType":"uint16"}]},{"type":"error","name":"NotAuthorized","inputs":[]},{"type":"error","name":"PriceAboveCap","inputs":[{"name":"capWei","type":"uint256","internalType":"uint256"},{"name":"askedWei","type":"uint256","internalType":"uint256"}]},{"type":"error","name":"RedeemCodeAlreadyUsed","inputs":[]},{"type":"error","name":"TicketAlreadyListed","inputs":[{"name":"ticketId","type":"uint256","internalType":"uint256"}]},{"type":"error","name":"TicketAlreadyUsed","inputs":[{"name":"ticketId","type":"uint256","internalType":"uint256"}]},{"type":"error","name":"TicketDoesNotExist","inputs":[{"name":"ticketId","type":"uint256","internalType":"uint256"}]},{"type":"error","name":"TicketNotListed","inputs":[{"name":"ticketId","type":"uint256","internalType":"uint256"}]},{"type":"error","name":"TicketNotOwned","inputs":[{"name":"ticketId","type":"uint256","internalType":"uint256"}]},{"type":"error","name":"TicketNotUsableYet","inputs":[{"name":"ticketId","type":"uint256","internalType":"uint256"}]},{"type":"error","name":"TicketSaleNotAllowed","inputs":[{"name":"ticketId","type":"uint256","internalType":"uint256"}]},{"type":"error","name":"TicketUseWindowClosed","inputs":[{"name":"ticketId","type":"uint256","internalType":"uint256"}]},{"type":"error","name":"VenueDoesNotExist","inputs":[{"name":"venueId","type":"uint256","internalType":"uint256"}]}],"bytecode":{"object":"0x608060405260015f5560018055600160025560016003556001600455348015610026575f80fd5b50612f7a806100345f395ff3fe60806040526004361061013f575f3560e01c806367dd74ca116100b35780639e4b52651161006d5780639e4b5265146103bf578063a264c4c8146102f7578063a9376578146103de578063d38259231461040a578063d517d5bc14610429578063fd8a917d14610448575f80fd5b806367dd74ca146102f75780637dc379fa1461030a578063811dd0e21461033657806383ece4c6146103625780638666de1c146103815780638d7584c2146103a0575f80fd5b80634ef7ca55116101045780634ef7ca551461021357806351a2c4e31461023f578063593530db1461025e5780635c7b79f51461028d5780635fa9a9cf146102ac578063679ebf1a146102d8575f80fd5b80632157a0891461014a578063266064481461017c578063305a905a1461019d57806333f09225146101bc57806336b0ae14146101f4575f80fd5b3661014657005b5f80fd5b348015610155575f80fd5b50610169610164366004612553565b610467565b6040519081526020015b60405180910390f35b348015610187575f80fd5b5061019b610196366004612595565b6105ad565b005b3480156101a8575f80fd5b5061019b6101b73660046125ac565b610728565b3480156101c7575f80fd5b50600154600254600354600454604080519485526020850193909352918301526060820152608001610173565b3480156101ff575f80fd5b5061019b61020e36600461262b565b61089e565b34801561021e575f80fd5b5061023261022d366004612595565b6109e7565b60405161017391906126be565b34801561024a575f80fd5b5061016961025936600461274b565b610ad1565b348015610269575f80fd5b5061027d610278366004612595565b610c33565b6040519015158152602001610173565b348015610298575f80fd5b5061019b6102a7366004612595565b610c6e565b3480156102b7575f80fd5b506102cb6102c6366004612792565b610e96565b6040516101739190612809565b3480156102e3575f80fd5b5061019b6102f236600461284c565b611111565b61019b610305366004612595565b61127e565b348015610315575f80fd5b50610329610324366004612595565b6112d1565b6040516101739190612876565b348015610341575f80fd5b50610355610350366004612595565b6113a0565b6040516101739190612929565b34801561036d575f80fd5b5061019b61037c366004612595565b611551565b34801561038c575f80fd5b5061016961039b3660046129b7565b611607565b3480156103ab575f80fd5b5061019b6103ba366004612a1f565b611800565b3480156103ca575f80fd5b5061019b6103d9366004612595565b611994565b3480156103e9575f80fd5b506103fd6103f8366004612595565b611a4b565b6040516101739190612a92565b348015610415575f80fd5b50610169610424366004612aff565b611b81565b348015610434575f80fd5b5061019b610443366004612595565b611d4c565b348015610453575f80fd5b50610169610462366004612b6d565b611df5565b5f61047185611fa9565b5f858152600760209081526040808320600181015484526005909252909120600201546001600160a01b031633146104bc5760405163ea8e4eb560e01b815260040160405180910390fd5b845f036104dc5760405163b4fa3fb360e01b815260040160405180910390fd5b6104e68686611fdf565b60018101545f908152600560205260408120600201546001600160a01b0316905b86811015610546575f61051c89848989612050565b9050815f03610529578094505b5f908152600960205260409020805460ff19169055600101610507565b5085826005015f82825461055a9190612bbe565b9091555050604080518781526020810187905285151581830152905188917fd08a677d273cb4f3f96a67ec0d2b8becd6fcf524fe80aba4bd5957f0b92eaf1a919081900360600190a25050949350505050565b6105b681612146565b5f81815260086020526040902060018101546001600160a01b031633146105f857604051633bec67ed60e11b8152600481018390526024015b60405180910390fd5b600381015460ff161561062157604051633d1f022560e01b8152600481018390526024016105ef565b80545f8181526007602052604090209061063a90610c33565b61065d5781546040516325cb55b560e21b815260048101919091526024016105ef565b80546001600160401b0316425f6106776201518084612bd7565b9050806001600160401b0316826001600160401b031610156106af5760405163132cecfb60e01b8152600481018790526024016105ef565b826001600160401b0316826001600160401b031611156106e557604051638b6efffd60e01b8152600481018790526024016105ef565b60038501805460ff19166001179055604051339087907f07c2221c844690cb15e32907258d38446cd4a17bc9b84e2069cd955615d547fd905f90a3505050505050565b61073182612146565b5f82815260086020526040902060018101546001600160a01b0316331461076e57604051633bec67ed60e11b8152600481018490526024016105ef565b600381015460ff161561079757604051633d1f022560e01b8152600481018490526024016105ef565b6003810154610100900460ff166107c457604051630c73852360e31b8152600481018490526024016105ef565b600381015462010000900460ff16156107f357604051633b66d1df60e21b8152600481018490526024016105ef565b80545f90815260076020526040902080546001600160401b03908116429091161061083457604051638b6efffd60e01b8152600481018590526024016105ef565b61084282600201548461217a565b60038201805462ff00001916620100001790556004820183905560405184907fbca2f6391cafd6d28d39261ba883dd74090c618befb806e74ef434778bb2f7ed906108909086815260200190565b60405180910390a250505050565b866108a8816121a9565b5f818152600560205260409020600201546001600160a01b031633146108e15760405163ea8e4eb560e01b815260040160405180910390fd5b5f8690036109025760405163b4fa3fb360e01b815260040160405180910390fd5b6001600160a01b038316158061091f57506001600160a01b038216155b1561093d5760405163b4fa3fb360e01b815260040160405180910390fd5b5f88815260056020526040902080610956888a83612c8e565b5060018101610966868883612c8e565b506002810180546001600160a01b03199081166001600160a01b038781169182179093556003840180549092169286169283179091556040518b907f6f68efa5ce7d91c19b92c99a984db8dbba5de602165742fd3cd9471f87b09640906109d4908d908d908d908d90612d6f565b60405180910390a4505050505050505050565b60408051610120810182525f80825260208201819052918101829052606081018290526080810182905260a0810182905260c0810182905260e08101829052610100810191909152610a3882611fa9565b505f9081526007602090815260409182902082516101208101845281546001600160401b03168152600182015492810192909252600281015492820192909252600382015460ff80821615156060840152610100808304821615156080850152620100009092048116151560a0840152600484015460c0840152600584015460e084015260069093015490921615159181019190915290565b5f610adb84611fa9565b5f610b1a84848080601f0160208091040260200160405190810160405280939291908181526020018383808284375f920191909152506121de92505050565b5f868152600a602090815260408083208484529091529020600181015491925090610100900460ff16610b6057604051630e4283e960e21b815260040160405180910390fd5b600181015460ff1615610b86576040516340a3eff360e11b815260040160405180910390fd5b80549250610b9383612146565b5f83815260086020526040902060018101546001600160a01b031615610bcc57604051630e4283e960e21b815260040160405180910390fd5b6001828101805460ff191682179055810180546001600160a01b031916339081179091556040519081528490849089907f9af89dcf66dc4f203db18e3a4763de448bf0e519329acc867f6294d4cb2f4aae9060200160405180910390a45050509392505050565b5f610c3d82611fa9565b5f828152600760205260409020600381015460ff168015610c6757506003810154610100900460ff165b9392505050565b5f54600114610cac5760405162461bcd60e51b815260206004820152600a6024820152695245454e5452414e435960b01b60448201526064016105ef565b60025f55610cb981611fa9565b5f818152600760209081526040808320600181015484526005909252909120600201546001600160a01b03163314610d045760405163ea8e4eb560e01b815260040160405180910390fd5b610d0d82610c33565b610d2d576040516325cb55b560e21b8152600481018390526024016105ef565b600381015462010000900460ff1615610d5c57604051630d3cd76960e01b8152600481018390526024016105ef565b80546001600160401b039081164290911611610da057805460405163136696f760e21b8152600481018490526001600160401b0390911660248201526044016105ef565b60038101805462ff00001916620100001790556004810180545f9182905560028084015483526006602090815260408085206001870154865260059092528420918101549293909261271090610dfa9061ffff1686612da0565b610e049190612db7565b90505f610e118286612dd6565b6003850154909150610e2c906001600160a01b0316836121e9565b6003830154610e44906001600160a01b0316826121e9565b6002860154600187015460408051848152602081018690528a917fc828dd4dc78cc7a6c84465e6b9c6cdbbd14e1ed6aa60f2a92d36e3cb5f4f85b7910160405180910390a4505060015f555050505050565b6060610ea184611fa9565b5f848152600760209081526040808320600181015484526005909252909120600201546001600160a01b03163314610eec5760405163ea8e4eb560e01b815260040160405180910390fd5b5f839003610f0d5760405163b4fa3fb360e01b815260040160405180910390fd5b610f178584611fdf565b826001600160401b03811115610f2f57610f2f612bf7565b604051908082528060200260200182016040528015610f58578160200160208202803683370190505b5091505f5b838110156110ec575f610fc6868684818110610f7b57610f7b612de9565b9050602002810190610f8d9190612dfd565b8080601f0160208091040260200160405190810160405280939291908181526020018383808284375f920191909152506121de92505050565b5f888152600a60209081526040808320848452909152902060010154909150610100900460ff161561100b5760405163119b4fd360e11b815260040160405180910390fd5b5f611018885f805f612050565b5f8181526009602090815260408083208054600160ff19909116811790915581516060810183528581528084018581528184018381528f8752600a86528487208a88529095529290942093518455905192018054915161ffff1990921692151561ff0019169290921761010091151591909102179055855190915081908690859081106110a7576110a7612de9565b6020026020010181815250508082897f597ccc099793a1b33d0b5c2b3fee0fd6797fb0fca70238ead0766ae65fe4486660405160405180910390a45050600101610f5d565b5083839050816005015f8282546111039190612bbe565b909155509195945050505050565b61111a82612146565b5f82815260086020526040902060018101546001600160a01b0316331461115757604051633bec67ed60e11b8152600481018490526024016105ef565b6001600160a01b038216158061117557506001600160a01b03821633145b156111935760405163b4fa3fb360e01b815260040160405180910390fd5b600381015460ff16156111bc57604051633d1f022560e01b8152600481018490526024016105ef565b80545f90815260076020526040902080546001600160401b0390811642909116106111fd57604051638b6efffd60e01b8152600481018590526024016105ef565b600382015462010000900460ff161561122c57604051633b66d1df60e21b8152600481018590526024016105ef565b6001820180546001600160a01b0319166001600160a01b038516908117909155604051339086907fd15524263ae66f75c1e604c47db6085085110f23ef7322b355179ac5e3b0783a905f90a450505050565b5f546001146112bc5760405162461bcd60e51b815260206004820152600a6024820152695245454e5452414e435960b01b60448201526064016105ef565b60025f556112ca8134612288565b5060015f55565b60408051610100810182525f80825260208201819052918101829052606081018290526080810182905260a0810182905260c0810182905260e081019190915261131a82612146565b505f90815260086020908152604091829020825161010080820185528254825260018301546001600160a01b031693820193909352600282015493810193909352600381015460ff808216151560608601529281048316151560808501526201000090048216151560a0840152600481015460c08401526005015416151560e082015290565b6040805160c0810182526060808252602082018190525f92820183905281018290526080810182905260a08101919091526113da826121a9565b5f8281526005602052604090819020815160c0810190925280548290829061140190612c0b565b80601f016020809104026020016040519081016040528092919081815260200182805461142d90612c0b565b80156114785780601f1061144f57610100808354040283529160200191611478565b820191905f5260205f20905b81548152906001019060200180831161145b57829003601f168201915b5050505050815260200160018201805461149190612c0b565b80601f01602080910402602001604051908101604052809291908181526020018280546114bd90612c0b565b80156115085780601f106114df57610100808354040283529160200191611508565b820191905f5260205f20905b8154815290600101906020018083116114eb57829003601f168201915b505050918352505060028201546001600160a01b03908116602083015260038301541660408201526004820154606082015260059091015460ff16151560809091015292915050565b61155a81612146565b5f81815260086020526040902060018101546001600160a01b0316331461159757604051633bec67ed60e11b8152600481018390526024016105ef565b600381015462010000900460ff166115c557604051630aab32ed60e11b8152600481018390526024016105ef565b60038101805462ff0000191690555f6004820181905560405183917fdb00f3044f762e640c77fdd12df2e7cf2b4c17de34f8995969a4d98b9904af4591a25050565b5f8481036116285760405163b4fa3fb360e01b815260040160405180910390fd5b835f036116485760405163b4fa3fb360e01b815260040160405180910390fd5b6001600160a01b03821661166f5760405163b4fa3fb360e01b815260040160405180910390fd5b61271061ffff8416111561169c5760405163140997e960e21b815261ffff841660048201526024016105ef565b60028054905f6116ab83612e3f565b909155506040805160e06020601f8a01819004028201810190925260c0810188815292935091829189908990819085018382808284375f920182905250938552505050602080830188905261ffff87166040808501919091523360608501526001600160a01b0387166080850152600160a09094019390935284825260069052208151819061173a9082612e57565b506020820151600182015560408083015160028301805460608601516001600160a01b0390811662010000026001600160b01b031990921661ffff9094169390931717905560808401516003909301805460a0909501511515600160a01b026001600160a81b031990951693821693909317939093179091555190831690339083907f5fc392c8f10c5cebf3e346d3d66156f3c63f2ba36fbccfdd2f748b7d45fb430c906117ef908b908b908b908b90612f16565b60405180910390a495945050505050565b8661180a816124ee565b5f818152600660205260409020600201546201000090046001600160a01b031633146118495760405163ea8e4eb560e01b815260040160405180910390fd5b5f86900361186a5760405163b4fa3fb360e01b815260040160405180910390fd5b845f0361188a5760405163b4fa3fb360e01b815260040160405180910390fd5b6001600160a01b03831615806118a757506001600160a01b038216155b156118c55760405163b4fa3fb360e01b815260040160405180910390fd5b61271061ffff851611156118f25760405163140997e960e21b815261ffff851660048201526024016105ef565b5f8881526006602052604090208061190b888a83612c8e565b50600181018690556002810180546001600160a01b038087166201000081026001600160b01b031990931661ffff8a1617929092179092556003830180549286166001600160a01b0319909316831790556040518b907f2988761b9f380e9ceb2079489aca04502710d07f82ca4121df7b7520e9169a6f906109d4908d908d908d908d90612f16565b61199d81611fa9565b5f81815260076020526040902060028101546119b8906124ee565b6002818101545f90815260066020526040902001546201000090046001600160a01b031633146119fb5760405163ea8e4eb560e01b815260040160405180910390fd5b60038101805461ff001916610100179055600281015460405133815283907f2b2cd425cea97d97d4d27fdf7e6fa37e271112cdd4171c6a1d79d34ac1e5b4f6906020015b60405180910390a35050565b6040805160c08101825260608082525f6020830181905292820183905281018290526080810182905260a0810191909152611a85826124ee565b5f8281526006602052604090819020815160c08101909252805482908290611aac90612c0b565b80601f0160208091040260200160405190810160405280929190818152602001828054611ad890612c0b565b8015611b235780601f10611afa57610100808354040283529160200191611b23565b820191905f5260205f20905b815481529060010190602001808311611b0657829003601f168201915b505050918352505060018201546020820152600282015461ffff811660408301526201000090046001600160a01b0390811660608301526003909201549182166080820152600160a01b90910460ff16151560a09091015292915050565b5f848103611ba25760405163b4fa3fb360e01b815260040160405180910390fd5b6001600160a01b038216611bc95760405163b4fa3fb360e01b815260040160405180910390fd5b60018054905f611bd883612e3f565b909155506040805160e06020601f8a01819004028201810190925260c0810188815292935091829189908990819085018382808284375f92019190915250505090825250604080516020601f8801819004810282018101909252868152918101919087908790819084018382808284375f9201829052509385525050336020808501919091526001600160a01b03871660408086019190915260608501849052600160809095019490945285835260059052502081518190611c9a9082612e57565b5060208201516001820190611caf9082612e57565b506040828101516002830180546001600160a01b03199081166001600160a01b039384161790915560608501516003850180549092169083161790556080840151600484015560a0909301516005909201805460ff1916921515929092179091555190831690339083907f8369a6aa74a9ede8e187ea9d3b882ea4818853fd33e691f3861b0a13e4b421dd906117ef908b908b908b908b90612d6f565b611d5581611fa9565b5f8181526007602052604090206001810154611d70906121a9565b60018101545f908152600560205260409020600201546001600160a01b03163314611dae5760405163ea8e4eb560e01b815260040160405180910390fd5b60038101805460ff1916600190811790915581015460405133815283907f61f91de2611d5248ab08c64c8233920c08baafc6781c1031f8264eabcde8719f90602001611a3f565b5f611dff836121a9565b611e08826124ee565b426001600160401b0316846001600160401b031611611e455760405163020557b560e21b81526001600160401b03851660048201526024016105ef565b60038054905f611e5483612e3f565b9091555060408051610120810182526001600160401b03808816825260208083018881528385018881525f606086018181526080870182815260a0880183815260c0890184815260e08a018581526001610100808d018281528f89526007909b52968d90209b518c549b1667ffffffffffffffff19909b169a909a178b559651988a0198909855935160028901559051600388018054925194511515620100000262ff00001995151590940261ff00199215159290921661ffff199093169290921717929092161790559151600484015590516005830155516006909101805491151560ff1992909216919091179055519091508290849083907f33ab4bb0ae85fa861ce63f85928dce31c82fb494ecf01fce6e677766dfdc4d2d90611f9a90899033906001600160401b039290921682526001600160a01b0316602082015260400190565b60405180910390a49392505050565b5f8181526007602052604090206006015460ff16611fdc5760405162389d8b60e11b8152600481018290526024016105ef565b50565b5f8281526007602090815260408083206002810154845260069092529091206001015460058201548190612014908590612bbe565b111561204a57600582015460405163e12f2cd160e01b8152600481018390526024810185905260448101919091526064016105ef565b50505050565b600480545f918261206083612e3f565b909155506040805161010080820183529781526001600160a01b0396871660208083019182528284019788525f606084018181529715156080850190815260a0850182815260c08601838152600160e088018181528a865260089096529790932095518655935195850180546001600160a01b03191696909b16959095179099559651600283015594516003820180549351965161ffff1990941691151561ff001916919091179515159098029490941762ff000019166201000091151591909102179095555091516004830155516005909101805460ff191691151591909117905590565b5f8181526008602052604090206005015460ff16611fdc576040516326a949bb60e11b8152600481018290526024016105ef565b818111156121a557604051634216244560e11b815260048101839052602481018290526044016105ef565b5050565b5f818152600560208190526040909120015460ff16611fdc5760405163189aeab760e21b8152600481018290526024016105ef565b805160209091012090565b805f036121f4575050565b5f826001600160a01b0316826040515f6040518083038185875af1925050503d805f811461223d576040519150601f19603f3d011682016040523d82523d5f602084013e612242565b606091505b50509050806122835760405162461bcd60e51b815260206004820152600d60248201526c11551217d4d1539117d1905253609a1b60448201526064016105ef565b505050565b61229182612146565b5f828152600860205260409020600381015462010000900460ff166122cc57604051630aab32ed60e11b8152600481018490526024016105ef565b600381015460ff16156122f557604051633d1f022560e01b8152600481018490526024016105ef565b6003810154610100900460ff1661232257604051630c73852360e31b8152600481018490526024016105ef565b80545f90815260076020526040902080546001600160401b03908116429091161061236357604051638b6efffd60e01b8152600481018590526024016105ef565b60048201546123728185612529565b60018301546001600160a01b031680158061239557506001600160a01b03811633145b156123b35760405163b4fa3fb360e01b815260040160405180910390fd5b60038401805462ff0000191690555f60048501819055600180860180546001600160a01b03191633179055600280870185905590850154825260056020526040822001546001600160a01b03908116919083168214801561242257505f8881526009602052604090205460ff16155b9050801561248c575f888152600960205260408120805460ff19166001179055600486018054869290612456908490612bbe565b90915550506001858101545f9081526005602052604081206004018054909190612481908490612bbe565b909155506124969050565b61249683856121e9565b336001600160a01b0316836001600160a01b0316897f44b4a3d0d8e806cfda189b34f2af001a470ea7120cf481411a083ff5e930623b876040516124dc91815260200190565b60405180910390a45050505050505050565b5f81815260066020526040902060030154600160a01b900460ff16611fdc57604051632990c5ab60e11b8152600481018290526024016105ef565b8082146121a557604051633fbeadcb60e11b815260048101839052602481018290526044016105ef565b5f805f8060808587031215612566575f80fd5b8435935060208501359250604085013591506060850135801515811461258a575f80fd5b939692955090935050565b5f602082840312156125a5575f80fd5b5035919050565b5f80604083850312156125bd575f80fd5b50508035926020909101359150565b5f8083601f8401126125dc575f80fd5b5081356001600160401b038111156125f2575f80fd5b602083019150836020828501011115612609575f80fd5b9250929050565b80356001600160a01b0381168114612626575f80fd5b919050565b5f805f805f805f60a0888a031215612641575f80fd5b8735965060208801356001600160401b038082111561265e575f80fd5b61266a8b838c016125cc565b909850965060408a0135915080821115612682575f80fd5b5061268f8a828b016125cc565b90955093506126a2905060608901612610565b91506126b060808901612610565b905092959891949750929550565b5f610120820190506001600160401b03835116825260208301516020830152604083015160408301526060830151151560608301526080830151612706608084018215159052565b5060a083015161271a60a084018215159052565b5060c083015160c083015260e083015160e0830152610100808401516127438285018215159052565b505092915050565b5f805f6040848603121561275d575f80fd5b8335925060208401356001600160401b03811115612779575f80fd5b612785868287016125cc565b9497909650939450505050565b5f805f604084860312156127a4575f80fd5b8335925060208401356001600160401b03808211156127c1575f80fd5b818601915086601f8301126127d4575f80fd5b8135818111156127e2575f80fd5b8760208260051b85010111156127f6575f80fd5b6020830194508093505050509250925092565b602080825282518282018190525f9190848201906040850190845b8181101561284057835183529284019291840191600101612824565b50909695505050505050565b5f806040838503121561285d575f80fd5b8235915061286d60208401612610565b90509250929050565b5f610100820190508251825260018060a01b0360208401511660208301526040830151604083015260608301511515606083015260808301511515608083015260a0830151151560a083015260c083015160c083015260e08301516128df60e084018215159052565b5092915050565b5f81518084525f5b8181101561290a576020818501810151868301820152016128ee565b505f602082860101526020601f19601f83011685010191505092915050565b602081525f825160c0602084015261294460e08401826128e6565b90506020840151601f1984830301604085015261296182826128e6565b915050604084015160018060a01b0380821660608601528060608701511660808601525050608084015160a084015260a0840151151560c08401528091505092915050565b803561ffff81168114612626575f80fd5b5f805f805f608086880312156129cb575f80fd5b85356001600160401b038111156129e0575f80fd5b6129ec888289016125cc565b90965094505060208601359250612a05604087016129a6565b9150612a1360608701612610565b90509295509295909350565b5f805f805f805f60c0888a031215612a35575f80fd5b8735965060208801356001600160401b03811115612a51575f80fd5b612a5d8a828b016125cc565b90975095505060408801359350612a76606089016129a6565b9250612a8460808901612610565b91506126b060a08901612610565b602081525f825160c06020840152612aad60e08401826128e6565b90506020840151604084015261ffff6040850151166060840152606084015160018060a01b0380821660808601528060808701511660a0860152505060a0840151151560c08401528091505092915050565b5f805f805f60608688031215612b13575f80fd5b85356001600160401b0380821115612b29575f80fd5b612b3589838a016125cc565b90975095506020880135915080821115612b4d575f80fd5b50612b5a888289016125cc565b9094509250612a13905060408701612610565b5f805f60608486031215612b7f575f80fd5b83356001600160401b0381168114612b95575f80fd5b95602085013595506040909401359392505050565b634e487b7160e01b5f52601160045260245ffd5b80820180821115612bd157612bd1612baa565b92915050565b6001600160401b038281168282160390808211156128df576128df612baa565b634e487b7160e01b5f52604160045260245ffd5b600181811c90821680612c1f57607f821691505b602082108103612c3d57634e487b7160e01b5f52602260045260245ffd5b50919050565b601f82111561228357805f5260205f20601f840160051c81016020851015612c685750805b601f840160051c820191505b81811015612c87575f8155600101612c74565b5050505050565b6001600160401b03831115612ca557612ca5612bf7565b612cb983612cb38354612c0b565b83612c43565b5f601f841160018114612cea575f8515612cd35750838201355b5f19600387901b1c1916600186901b178355612c87565b5f83815260208120601f198716915b82811015612d195786850135825560209485019460019092019101612cf9565b5086821015612d35575f1960f88860031b161c19848701351681555b505060018560011b0183555050505050565b81835281816020850137505f828201602090810191909152601f909101601f19169091010190565b604081525f612d82604083018688612d47565b8281036020840152612d95818587612d47565b979650505050505050565b8082028115828204841417612bd157612bd1612baa565b5f82612dd157634e487b7160e01b5f52601260045260245ffd5b500490565b81810381811115612bd157612bd1612baa565b634e487b7160e01b5f52603260045260245ffd5b5f808335601e19843603018112612e12575f80fd5b8301803591506001600160401b03821115612e2b575f80fd5b602001915036819003821315612609575f80fd5b5f60018201612e5057612e50612baa565b5060010190565b81516001600160401b03811115612e7057612e70612bf7565b612e8481612e7e8454612c0b565b84612c43565b602080601f831160018114612eb7575f8415612ea05750858301515b5f19600386901b1c1916600185901b178555612f0e565b5f85815260208120601f198616915b82811015612ee557888601518255948401946001909101908401612ec6565b5085821015612f0257878501515f19600388901b60f8161c191681555b505060018460011b0185555b505050505050565b606081525f612f29606083018688612d47565b905083602083015261ffff831660408301529594505050505056fea264697066735822122067e1447603530483acd2c0ee3c299b69ed138082fda261c760b7849474f77f5864736f6c63430008180033","linkReferences":{}},"methodIdentifiers":{"buyTicket(uint256)":"67dd74ca","cashOut(uint256)":"5c7b79f5","confirmConcertAsArtist(uint256)":"d517d5bc","confirmConcertAsVenue(uint256)":"9e4b5265","createArtist(string,string,address)":"d3825923","createConcert(uint64,uint256,uint256)":"fd8a917d","createRedeemCodes(uint256,string[])":"5fa9a9cf","createVenue(string,uint256,uint16,address)":"8666de1c","emitTickets(uint256,uint256,uint256,bool)":"2157a089","getArtist(uint256)":"811dd0e2","getConcert(uint256)":"4ef7ca55","getTicket(uint256)":"7dc379fa","getVenue(uint256)":"a9376578","isConcertConfirmed(uint256)":"593530db","listTicket(uint256,uint256)":"305a905a","nextIds()":"33f09225","redeemTicket(uint256,string)":"51a2c4e3","safeTrade(uint256)":"a264c4c8","transferTicket(uint256,address)":"679ebf1a","unlistTicket(uint256)":"83ece4c6","updateArtist(uint256,string,string,address,address)":"36b0ae14","updateVenue(uint256,string,uint256,uint16,address,address)":"8d7584c2","useTicket(uint256)":"26606448"},"id":19}